{
    "contractName": "ProofOfExistence",
    "abi": [
        {
            "constant": false,
            "inputs": [
                {
                    "name": "documentHash",
                    "type": "bytes32"
                }
            ],
            "name": "stampDocument",
            "outputs": [],
            "payable": false,
            "stateMutability": "nonpayable",
            "type": "function"
        },
        {
            "constant": true,
            "inputs": [
                {
                    "name": "",
                    "type": "bytes32"
                }
            ],
            "name": "stamps",
            "outputs": [
                {
                    "name": "",
                    "type": "uint256"
                }
            ],
            "payable": false,
            "stateMutability": "view",
            "type": "function"
        },
        {
            "anonymous": false,
            "inputs": [
                {
                    "indexed": true,
                    "name": "documentHash",
                    "type": "bytes32"
                }
            ],
            "name": "DocumentStamped",
            "type": "event"
        }
    ],
    "bytecode": "608060405234801561001057600080fd5b5061011d806100206000396000f30060806040526004361060485763ffffffff7c01000000000000000000000000000000000000000000000000000000006000350416637a0218a28114604d578063d8ae15f9146064575b600080fd5b348015605857600080fd5b506062600435608b565b005b348015606f57600080fd5b50607960043560df565b60408051918252519081900360200190f35b600081815260208190526040902054151560b15760008181526020819052604090204290555b60405181907f12750f43e05655489f35f85ec76bec70d7da33b4141faee035fc949ac123a86490600090a250565b600060208190529081526040902054815600a165627a7a7230582081aec544daf79f49c7aaef53922d6b758ab551d28ab2a6433568162f179eb51c0029",
    "sourcePath": "/Users/camilohenao/Camilo/proyectos/private-transaction-hyperledger-besu-java/src/main/java/com/proofexistence/contracts/proofexistence/ProofOfExistence.sol",
    "compiler": {
        "name": "solc",
        "version": "0.4.26+commit.4563c3fc"
    },
    "functionHashes": {
        "stampDocument(bytes32)": "7a0218a2",
        "stamps(bytes32)": "d8ae15f9"
    },
    "gasEstimates": {
        "creation": {
            "codeDepositCost": "57000",
            "executionCost": "105",
            "totalCost": "57105"
        },
        "external": {
            "stampDocument(bytes32)": "21656",
            "stamps(bytes32)": "481"
        }
    }
}